{
  "transactions": [
    {
      "hash": "0x1c6c13f1ecf3703b8231755288a6c48b512db630146b9e821390c6d732e3b8b3",
      "transactionType": "CALL",
      "contractName": null,
      "contractAddress": "0xaa8e23fb1079ea71e0a56f48a2aa51851d8433d0",
      "function": "approve(address,uint256)",
      "arguments": [
        "0x3bFA4769FB09eefC5a80d6E87c3B9C650f7Ae48E",
        "200000000"
      ],
      "transaction": {
        "from": "0x7a9b05c27b9d5e3d1e463956991ef7abb24f309d",
        "to": "0xaa8e23fb1079ea71e0a56f48a2aa51851d8433d0",
        "gas": "0xf959",
        "value": "0x0",
        "input": "0x095ea7b30000000000000000000000003bfa4769fb09eefc5a80d6e87c3b9c650f7ae48e000000000000000000000000000000000000000000000000000000000bebc200",
        "nonce": "0x33",
        "chainId": "0xaa36a7"
      },
      "additionalContracts": [],
      "isFixedGasLimit": false
    },
    {
      "hash": "0x8880107ec2d0482058c0e3a13aefdf5d79745cd849e8874b3c19c98a17c7dd80",
      "transactionType": "CALL",
      "contractName": null,
      "contractAddress": "0x3bfa4769fb09eefc5a80d6e87c3b9c650f7ae48e",
      "function": "exactInputSingle((address,address,uint24,address,uint256,uint256,uint160))",
      "arguments": [
        "(0xaA8E23Fb1079EA71e0a56F48a2aA51851D8433D0, 0x94a9D9AC8a22534E3FaCa9F4e7F2E2cf85d5E4C8, 500, 0x7a9B05C27b9D5e3D1E463956991ef7AbB24F309D, 200000000, 0, 0)"
      ],
      "transaction": {
        "from": "0x7a9b05c27b9d5e3d1e463956991ef7abb24f309d",
        "to": "0x3bfa4769fb09eefc5a80d6e87c3b9c650f7ae48e",
        "gas": "0x29eee",
        "value": "0x0",
        "input": "0x04e45aaf000000000000000000000000aa8e23fb1079ea71e0a56f48a2aa51851d8433d000000000000000000000000094a9d9ac8a22534e3faca9f4e7f2e2cf85d5e4c800000000000000000000000000000000000000000000000000000000000001f40000000000000000000000007a9b05c27b9d5e3d1e463956991ef7abb24f309d000000000000000000000000000000000000000000000000000000000bebc20000000000000000000000000000000000000000000000000000000000000000000000000000000000000000000000000000000000000000000000000000000000",
        "nonce": "0x34",
        "chainId": "0xaa36a7"
      },
      "additionalContracts": [],
      "isFixedGasLimit": false
    }
  ],
  "receipts": [
    {
      "status": "0x1",
      "cumulativeGasUsed": "0x73d0f8",
      "logs": [
        {
          "address": "0xaa8e23fb1079ea71e0a56f48a2aa51851d8433d0",
          "topics": [
            "0x8c5be1e5ebec7d5bd14f71427d1e84f3dd0314c0f7b2291e5b200ac8c7c3b925",
            "0x0000000000000000000000007a9b05c27b9d5e3d1e463956991ef7abb24f309d",
            "0x0000000000000000000000003bfa4769fb09eefc5a80d6e87c3b9c650f7ae48e"
          ],
          "data": "0x000000000000000000000000000000000000000000000000000000000bebc200",
          "blockHash": "0xd5eb6eb2e080a3af7d979745c6ec9a0e93ca2da307c292749507cd7f40797c63",
          "blockNumber": "0x960256",
          "blockTimestamp": "0x693d4508",
          "transactionHash": "0x1c6c13f1ecf3703b8231755288a6c48b512db630146b9e821390c6d732e3b8b3",
          "transactionIndex": "0x38",
          "logIndex": "0x82",
          "removed": false
        }
      ],
      "logsBloom": "0x00000000000000000000000000000000000000000000040000000000000000000000000008000000000000000000002001000000000000000000000000200000000000000000000000000000000000000000000000000000008000000000000004000000000000000000000000000000000000000000000000000000000000000000000000000000004000000000000000000000000000000000000000000000020000000000000000000000000000000000000000000000000000000000000000000000000000000000000000000000000000000000000000000000000000000010000000000000000000000000000000000000000000400000200000000000",
      "type": "0x2",
      "transactionHash": "0x1c6c13f1ecf3703b8231755288a6c48b512db630146b9e821390c6d732e3b8b3",
      "transactionIndex": "0x38",
      "blockHash": "0xd5eb6eb2e080a3af7d979745c6ec9a0e93ca2da307c292749507cd7f40797c63",
      "blockNumber": "0x960256",
      "gasUsed": "0xb487",
      "effectiveGasPrice": "0x118c2f",
      "from": "0x7a9b05c27b9d5e3d1e463956991ef7abb24f309d",
      "to": "0xaa8e23fb1079ea71e0a56f48a2aa51851d8433d0",
      "contractAddress": null
    },
    {
      "status": "0x1",
      "cumulativeGasUsed": "0x75b6b7",
      "logs": [
        {
          "address": "0x94a9d9ac8a22534e3faca9f4e7f2e2cf85d5e4c8",
          "topics": [
            "0xddf252ad1be2c89b69c2b068fc378daa952ba7f163c4a11628f55a4df523b3ef",
            "0x000000000000000000000000d50312339c01a50ccf98d92b995e5a4e86a6ce11",
            "0x0000000000000000000000007a9b05c27b9d5e3d1e463956991ef7abb24f309d"
          ],
          "data": "0x000000000000000000000000000000000000000000000000000000004d370439",
          "blockHash": "0xd5eb6eb2e080a3af7d979745c6ec9a0e93ca2da307c292749507cd7f40797c63",
          "blockNumber": "0x960256",
          "blockTimestamp": "0x693d4508",
          "transactionHash": "0x8880107ec2d0482058c0e3a13aefdf5d79745cd849e8874b3c19c98a17c7dd80",
          "transactionIndex": "0x39",
          "logIndex": "0x83",
          "removed": false
        },
        {
          "address": "0xaa8e23fb1079ea71e0a56f48a2aa51851d8433d0",
          "topics": [
            "0xddf252ad1be2c89b69c2b068fc378daa952ba7f163c4a11628f55a4df523b3ef",
            "0x0000000000000000000000007a9b05c27b9d5e3d1e463956991ef7abb24f309d",
            "0x000000000000000000000000d50312339c01a50ccf98d92b995e5a4e86a6ce11"
          ],
          "data": "0x000000000000000000000000000000000000000000000000000000000bebc200",
          "blockHash": "0xd5eb6eb2e080a3af7d979745c6ec9a0e93ca2da307c292749507cd7f40797c63",
          "blockNumber": "0x960256",
          "blockTimestamp": "0x693d4508",
          "transactionHash": "0x8880107ec2d0482058c0e3a13aefdf5d79745cd849e8874b3c19c98a17c7dd80",
          "transactionIndex": "0x39",
          "logIndex": "0x84",
          "removed": false
        },
        {
          "address": "0xaa8e23fb1079ea71e0a56f48a2aa51851d8433d0",
          "topics": [
            "0x8c5be1e5ebec7d5bd14f71427d1e84f3dd0314c0f7b2291e5b200ac8c7c3b925",
            "0x0000000000000000000000007a9b05c27b9d5e3d1e463956991ef7abb24f309d",
            "0x0000000000000000000000003bfa4769fb09eefc5a80d6e87c3b9c650f7ae48e"
          ],
          "data": "0x0000000000000000000000000000000000000000000000000000000000000000",
          "blockHash": "0xd5eb6eb2e080a3af7d979745c6ec9a0e93ca2da307c292749507cd7f40797c63",
          "blockNumber": "0x960256",
          "blockTimestamp": "0x693d4508",
          "transactionHash": "0x8880107ec2d0482058c0e3a13aefdf5d79745cd849e8874b3c19c98a17c7dd80",
          "transactionIndex": "0x39",
          "logIndex": "0x85",
          "removed": false
        },
        {
          "address": "0xd50312339c01a50ccf98d92b995e5a4e86a6ce11",
          "topics": [
            "0xc42079f94a6350d7e6235f29174924f928cc2ac818eb64fed8004e115fbcca67",
            "0x0000000000000000000000003bfa4769fb09eefc5a80d6e87c3b9c650f7ae48e",
            "0x0000000000000000000000007a9b05c27b9d5e3d1e463956991ef7abb24f309d"
          ],
          "data": "0xffffffffffffffffffffffffffffffffffffffffffffffffffffffffb2c8fbc7000000000000000000000000000000000000000000000000000000000bebc20000000000000000000000000000000000000000006598a7c3b2f138534acc0a9100000000000000000000000000000000000000000000000000000005cab522deffffffffffffffffffffffffffffffffffffffffffffffffffffffffffffb7cb",
          "blockHash": "0xd5eb6eb2e080a3af7d979745c6ec9a0e93ca2da307c292749507cd7f40797c63",
          "blockNumber": "0x960256",
          "blockTimestamp": "0x693d4508",
          "transactionHash": "0x8880107ec2d0482058c0e3a13aefdf5d79745cd849e8874b3c19c98a17c7dd80",
          "transactionIndex": "0x39",
          "logIndex": "0x86",
          "removed": false
        }
      ],
      "logsBloom": "0x00000000000000000000000000000000000000000000040000000000000000000000004008000004000000000000002001000000000020000000000000200000000000000000000800000008000000000000000000000000008008000000000004000000000000000000000000000000000000000000000000000010000800000000000000200000004000000000000000000000000000000000000000000000020000000100000000004000000000000000000000000000000000020000000000000002000000000000001000000000000000000000000000000000000000000010000000000000000000000000000000000000000000400000200000000000",
      "type": "0x2",
      "transactionHash": "0x8880107ec2d0482058c0e3a13aefdf5d79745cd849e8874b3c19c98a17c7dd80",
      "transactionIndex": "0x39",
      "blockHash": "0xd5eb6eb2e080a3af7d979745c6ec9a0e93ca2da307c292749507cd7f40797c63",
      "blockNumber": "0x960256",
      "gasUsed": "0x1e5bf",
      "effectiveGasPrice": "0x118c2f",
      "from": "0x7a9b05c27b9d5e3d1e463956991ef7abb24f309d",
      "to": "0x3bfa4769fb09eefc5a80d6e87c3b9c650f7ae48e",
      "contractAddress": null
    }
  ],
  "libraries": [],
  "pending": [],
  "returns": {},
  "timestamp": 1765623049470,
  "chain": 11155111,
  "commit": "8ee4ec4"
}